:020000040800F2
:1000000000500020D51100081D1200081D12000824
:100010001D1200081D1200081D120008000000003B
:100020000000000000000000000000001D12000899
:100030001D120008000000001D1200081511000824
:100040001D1200081D1200081D1200081D120008D4
:100050001D1200081D120008550D00081D12000891
:100060001D1200081D1200081D120008E10D0008F5
:100070001D1200081D1200081D1200081D120008A4
:100080001D1200081D120008C10D00081D120008F5
:100090001D1200081D1200081D1200081D12000884
:1000A0001D120008990D00081D1200081D120008FD
:1000B0001D120008710D00081D1200081D12000815
:1000C0001D1200081D1200081D1200081D12000854
:1000D0001D120008250E0008810E00081D120008E0
:1000E0001D1200081D1200081D120008000000006B
:1000F0000000000000000000000000000000000000
:0C01000000000000000000005FF808F1A3
:10010C0010B5054C237833B9044B13B10448AFF345
:10011C0000800123237010BD680000200000000047
:10012C00781B000808B5034B1BB103490348AFF318
:10013C00008008BD000000006C000020781B000847
:10014C00034613F8012B002AFBD1181A013870470B
:10015C0080B584B002AF00F0B1F800237B600BE0F7
:10016C007B6803F2091339497A680A441178384AD2
:10017C00D1547B6801337B607B68B3F5B87FEFDDCE
:10018C0000F068F93349344801F076F8324B0093AB
:10019C00002301222821102000F0F0FA2F492E48CC
:1001AC0001F06AF82C4B009300230122302112201D
:1001BC0000F0E4FA4FF4FA7000F0B2FD00F04AF9E6
:1001CC0040F6B83000F0ACFD2549234801F054F856
:1001DC00214B0093002301223021122000F0CEFA93
:1001EC004FF4FA7000F09CFD00F034F91C491A48E9
:1001FC0001F042F8184B0093002301222821102013
:10020C0000F0BCFA4FF4FA7000F08AFD00F022F90D
:10021C0000233B6008E03B6803F209130C4A002101
:10022C00D1543B6801333B603B68B3F5B87FF2DDDA
:10023C0000F010F94FF4FA7000F072FD00F03EF887
:10024C0000F008F900BF0837BD4680BD2421000826
:10025C0004010020901B000884000020A41B00084F
:10026C00B81B000880B582B000AF0346FB71084B89
:10027C004FF400321A61F91D64230122054800F085
:10028C00E5FE034B02221A6100BF0837BD4680BD54
:10029C00000C01400030014080B582B000AF034635
:1002AC00FB71F91D64230122034800F0CFFE00BF4F
:1002BC000837BD4680BD00BF0030014080B500AF9F
:1002CC004FF480620021024800F0CEFF00BF80BDD9
:1002DC000401002080B500AF244B4FF480021A615A
:1002EC00234B4FF480321A610A2000F019FD204B89
:1002FC0001221A610A2000F013FDA220FFF7B2FFC1
:10030C00012000F00DFDA020FFF7ACFFC820FFF787
:10031C00A9FF012000F004FD2720FFF7A3FF012017
:10032C0000F0FEFC2F20FFF79DFF012000F0F8FCF1
:10033C008120FFF797FF1220FFF794FF012000F0B8
:10034C00EFFC4020FFF78EFF012000F0E9FCAF200E
:10035C00FFF788FFA620FFF785FF012000F0E0FCE7
:10036C00024B40221A6100BF80BD00BF0008014053
:10037C00000C014080B485B000AF0346FB800B46F7
:10038C00BB801346FB70B7F906302F4A12789342A4
:10039C0055DAB7F90630002B51DBB7F904302B4A8C
:1003AC00127893424BDAB7F90430002B47DBB7F9DC
:1003BC000430002B00DA0733DB101BB29BB2224A4D
:1003CC00127892B202FB03F39AB2FB881344FB81BE
:1003DC00FB78002B18D0FB891D4AD35C5AB2B7F9B5
:1003EC000430594203F0070301F0070158BF4B4298
:1003FC001BB2194601238B405BB213435AB2FB89E3
:10040C00D1B2134AD1541BE0FB89114AD35C5AB2C6
:10041C00B7F90430594203F0070301F0070158BF44
:10042C004B421BB2194601238B405BB2DB435BB2E0
:10043C0013405AB2FB89D1B2054AD15400E000BF37
:10044C001437BD4680BC704700000020010000201E
:10045C000401002080B582B000AF1C4B4FF4800229
:10046C001A610023FB7127E01020FFF7FBFE002030
:10047C00FFF7F8FE97F9073003F007035BB263F060
:10048C004F035BB2DBB21846FFF7ECFE0023BB71E7
:10049C000BE0BA79FB79DB0113440D4AD35C1846A7
:1004AC00FFF7FAFEBB790133BB7197F90630002BCD
:1004BC00EFDAFB790133FB71FB79072BD4D9034BB2
:1004CC0040221A6100BF0837BD4680BD00080140BC
:1004DC000401002090B585B000AF044608461146D3
:1004EC001A462346FB710346BB710B46BB80134671
:1004FC00FB70FB793B73FB790533FB723B7BFB7326
:10050C0086E0FA7BFB7A9A4227D10023BB7320E06A
:10051C00FB78002B0DD0FB7B18B2BB799AB2BB7B5E
:10052C009BB213449BB21BB201221946FFF722FF68
:10053C000CE0FB7B18B2BB799AB2BB7B9BB2134429
:10054C009BB21BB200221946FFF714FFBB7B013391
:10055C00BB73BB7B062BDBD957E000237B7351E0CD
:10056C00BA8813469B001A44FB7B1A443B7BD31A74
:10057C002C4AD35C1A467B7B42FA03F303F001034B
:10058C00002B1ED0FB78002B0DD0FB7B18B2BB7957
:10059C009AB27B7B9BB213449BB21BB200221946CE
:1005AC00FFF7E8FE2BE0FB7B18B2BB799AB27B7BA2
:1005BC009BB213449BB21BB201221946FFF7DAFE21
:1005CC001DE0FB78002B0DD0FB7B18B2BB799AB2E7
:1005DC007B7B9BB213449BB21BB201221946FFF7E3
:1005EC00C9FE0CE0FB7B18B2BB799AB27B7B9BB249
:1005FC0013449BB21BB200221946FFF7BBFE7B7B58
:10060C0001337B737B7B062BAAD9FB7B0133FB73FA
:10061C00FA7BFB7A9A427FF674AF00BF00BF1437A7
:10062C00BD4690BDF81D000890B585B000AF0446DE
:10063C00084611461A462346FB710346BB710B460E
:10064C00BB801346FB70FB793B73FB790333FB7266
:10065C003B7BFB7386E0FA7BFB7A9A4227D1002323
:10066C00BB7320E0FB78002B0DD0FB7B18B2BB7961
:10067C009AB2BB7B9BB213449BB21BB201221946AC
:10068C00FFF778FE0CE0FB7B18B2BB799AB2BB7B10
:10069C009BB213449BB21BB200221946FFF76AFEB1
:1006AC00BB7B0133BB73BB7B042BDBD957E0002333
:1006BC007B7351E0BA8813465B001A44FB7B1A44E7
:1006CC003B7BD31A2C4AD35C1A467B7B42FA03F34E
:1006DC0003F00103002B1ED0FB78002B0DD0FB7B0D
:1006EC0018B2BB799AB27B7B9BB213449BB21BB200
:1006FC0000221946FFF73EFE2BE0FB7B18B2BB79BC
:10070C009AB27B7B9BB213449BB21BB2012219465B
:10071C00FFF730FE1DE0FB78002B0DD0FB7B18B2F1
:10072C00BB799AB27B7B9BB213449BB21BB2012266
:10073C001946FFF71FFE0CE0FB7B18B2BB799AB28F
:10074C007B7B9BB213449BB21BB200221946FFF772
:10075C0011FE7B7B01337B737B7B042BAAD9FB7B48
:10076C000133FB73FA7BFB7A9A427FF674AF00BFBE
:10077C0000BF1437BD4690BD101C000890B587B063
:10078C0000AF0446084611461A462346FB71034641
:10079C00BB710B467B7113463B710023FB8100231D
:1007AC00FB7500233B617EE13B69BA6A13441B78FD
:1007BC00BF2B41D8FB7D002B02D00023FB756FE1D2
:1007CC003B69BA6A13441B78FB817B79002B17D1E8
:1007DC003B79002B08D0FB89203B9AB2B979F87988
:1007EC000123FFF721FF07E0FB89203B9AB2B9797F
:1007FC00F8790023FFF718FFFB790433FB714FE105
:10080C007B79012B40F04C813B79002B08D0FB8984
:10081C00203B9AB2B979F8790123FFF75BFE07E028
:10082C00FB89203B9AB2B979F8790023FFF752FE85
:10083C00FB790633FB7133E13B69BA6A13441B78CD
:10084C001B021AB23B690133B96A0B441B781BB209
:10085C0013431BB2FB81FB894DF27F12934243D8A9
:10086C00FB894DF2810293423ED97B79002B1BD13F
:10087C003B79002B0AD0FB8903F53F530F339AB217
:10088C00B979F8790123FFF7CFFE09E0FB8903F56D
:10089C003F530F339AB2B979F8790023FFF7C4FEAE
:1008AC00FB790433FB71F8E07B79012B40F0F58088
:1008BC003B79002B0AD0FB8903F53F530F339AB2D7
:1008CC00B979F8790123FFF705FE09E0FB8903F5F7
:1008DC003F530F339AB2B979F8790023FFF7FAFD39
:1008EC00FB790633FB71D8E0FB894DF28102934210
:1008FC002ED17B79002B13D13B79002B06D0B97903
:10090C00F87901239F22FFF78FFE05E0B979F8797A
:10091C0000239F22FFF788FEFB790433FB71BDE0B7
:10092C007B79012B40F0BA803B79002B06D0B9794A
:10093C00F87901239F22FFF7CDFD05E0B979F8790D
:10094C0000239F22FFF7C6FDFB790633FB71A5E060
:10095C00FB894DF2911293422ED17B79002B13D14E
:10096C003B79002B06D0B979F8790123A022FFF747
:10097C005BFE05E0B979F8790023A022FFF754FE5D
:10098C00FB790433FB7189E07B79012B40F0868085
:10099C003B79002B06D0B979F8790123A022FFF717
:1009AC0099FD05E0B979F8790023A022FFF792FDB3
:1009BC00FB790633FB7171E0FB894CF2B022934258
:1009CC002DD17B79002B13D13B79002B06D0B97933
:1009DC00F8790123A122FFF727FE05E0B979F87910
:1009EC000023A122FFF720FEFB790433FB7155E0B5
:1009FC007B79012B52D13B79002B06D0B979F87950
:100A0C000123A122FFF766FD05E0B979F8790023EF
:100A1C00A122FFF75FFDFB790633FB713EE07B798A
:100A2C00002B1BD13B79002B0AD0FB8903F53C53DF
:100A3C000F339AB2B979F8790123FFF7F5FD09E084
:100A4C00FB8903F53C530F339AB2B979F87900233B
:100A5C00FFF7EAFDFB790433FB711FE07B79012B77
:100A6C001CD13B79002B0AD0FB8903F53C530F3387
:100A7C009AB2B979F8790123FFF72CFD09E0FB89CB
:100A8C0003F53C530F339AB2B979F8790023FFF789
:100A9C0021FDFB790633FB7100E000BF0123FB75E0
:100AAC003B6901333B61B86AFFF74AFB02463B697D
:100ABC009A423FF679AE00BF00BF1C37BD4690BDD1
:100ACC0080B400AF104B9B690F4A43F0080393614D
:100ADC000E4B1B680D4A43F0030313600B4B1B6852
:100AEC000A4A23F00C031360084B1B68074A43F0B7
:100AFC0030031360054B1B68044A23F0C0031360DA
:100B0C0000BFBD4680BC704700100240000C014085
:100B1C0080B500AF00F00EF800F03AF800F0CEF817
:100B2C00FFF7CEFF00F0D4F9FFF7D4FBFFF710FB73
:100B3C00FEE7000080B400AF124B9B69114A43F0F2
:100B4C00040393610F4B9B690E4A43F001039361BD
:100B5C000D4B5B6823F0E0630B4A43F0007353606A
:100B6C000A4B4FF4B0329A61084B4FF4C0429A6171
:100B7C00064B4FF4B0329A61044B9B6900BFBD46E3
:100B8C0080BC70470010024000000140000801408A
:100B9C0080B400AF474B1B68464A43F00103136017
:100BAC0000BF444B1B6803F00203002BF9D0414BF0
:100BBC001B68404A23F4802313603E4B1B683D4A5C
:100BCC0043F48033136000BF3A4B1B6803F40033CB
:100BDC00002BF9D0374B1B68364A43F400231360C3
:100BEC00344B5B6823F00303324A43F00103536038
:100BFC00304B5B682F4A23F0F00353602E4B1B687D
:100C0C0023F007032C4A43F0020313602A4B1B68A2
:100C1C00294A43F010031360264B5B6823F4E0630E
:100C2C00244A43F480635360224B5B68214A23F4CB
:100C3C00605353601F4B5B6823F440431D4A43F4DD
:100C4C00004353601B4B5B681A4A43F48033536078
:100C5C00184B184A5B685360164B5B6823F470138F
:100C6C00144A43F4E0135360124B5B68114A23F4AB
:100C7C00800353600F4B5B680E4A23F0E0635360B4
:100C8C000C4B1B680B4A43F080731360094B5B6879
:100C9C0023F00303074A43F00203536000BF054BE4
:100CAC001B6803F00073002BF9D000BF00BFBD46DA
:100CBC0080BC7047001002400020024080B400AF9E
:100CCC00154B1B68144A23F001031360124B1B686D
:100CDC00114A43F0020313600F4B1B680E4A43F09A
:100CEC00040313600C4B5B6803F07F420A490B4B07
:100CFC0013434B60084B9B6803F07F420649074B3C
:100D0C0013438B60044B1B68034A43F001031360CD
:100D1C0000BFBD4680BC704710E000E03F190100E9
:100D2C0080B483B000AF7860064A7B68136000BF64
:100D3C00044B1B68002BFBD100BF00BF0C37BD461A
:100D4C0080BC70470805002080B400AF044B5B6981
:100D5C00034A43F00103536100BFBD4680BC70479A
:100D6C000004014080B400AF074B1B6903F0010382
:100D7C00002B05D0044B1B69034A23F001031361BC
:100D8C0000BFBD4680BC70470004004080B400AF7B
:100D9C00074B1B6903F00103002B05D0044B1B69A7
:100DAC00034A23F00103136100BFBD4680BC7047AA
:100DBC00002C014080B400AF054B1B6803F002030C
:100DCC00002B01D0024BDB6C00BFBD4680BC7047D2
:100DDC000024014080B400AF0E4B1B6803F00203EB
:100DEC00002B06D00B4B5B680A4A43F0010353609F
:100DFC000BE0084B1B6803F00803002B05D0054BD8
:100E0C005B68044A43F00103536000BFBD4680BCDD
:100E1C00704700BF0000024080B400AF134B1B684A
:100E2C0003F02003002B0ED0104B5A68104B1B8D77
:100E3C001946D2B20E4B0B441A750D4B1B8D013358
:100E4C009AB20B4B1A85094B1B6803F01003002B4D
:100E5C0008D0064B5B68064B1A8D054B5A85044B24
:100E6C0000221A8500BFBD4680BC70470038014087
:100E7C001005002080B400AF134B1B6803F0200357
:100E8C00002B0ED0104B5A68104B1B8D1946D2B24A
:100E9C000E4B0B441A750D4B1B8D01339AB20B4B39
:100EAC001A85094B1B6803F01003002B08D0064B66
:100EBC005B68064B1A8D054B5A85044B00221A852C
:100ECC0000BFBD4680BC7047004400403C0500207C
:100EDC0080B400AF5A4B9B69594A43F001039361AC
:100EEC00574B9B69564A43F480539361544B9B690F
:100EFC00534A43F004039361524B1B68514A23F04D
:100F0C00380313604F4B1B684E4A23F002031360E7
:100F1C004C4B1B684B4A23F001031360494B1B6875
:100F2C00484A23F400631360464B1B68454A23F080
:100F3C0080031360434B1B68424A43F400731360F5
:100F4C00404B1B683F4A43F4807313603D4B1B6856
:100F5C003C4A43F0040313603A4B1B68394A23F4B0
:100F6C0000431360374B1B68364A23F480631360CD
:100F7C00344B1B68334A43F040031360314B1B68FE
:100F8C00304A23F4005313602E4B1B682D4A23F474
:100F9C00805313602B4B5B682A4A23F00103536088
:100FAC00284B5B68274A23F002035360254B5B6890
:100FBC00244A23F004035360224B5B68214A23F03C
:100FCC00200353601F4B5B681E4A23F040035360A1
:100FDC001C4B5B681B4A23F080035360194BDB6985
:100FEC00184A23F40063D361174B1B68164A43F469
:100FFC0040131360144B1B6823F44003124A43F450
:10100C0000031360104B1B680F4A43F040731360CE
:10101C000D4B1B680C4A23F0406313600A4B1B6892
:10102C00094A43F040531360074B1B6823F04043BD
:10103C00054A43F00043136000BFBD4680BC7047B7
:10104C0000100240003001400008014080B487B01D
:10105C0000AFF860B9603B601346FB80FB689B688F
:10106C0003F08003002B47D1BB681B781A46FB6842
:10107C00DA600123FB8219E0224A3B68136005E029
:10108C00204B1B68002B01D1002336E0FB689B68CA
:10109C0003F00203002BF3D0FB8ABA6813441B78CD
:1010AC001A46FB68DA60FB8A0133FB82FA8AFB88FA
:1010BC009A42E1D3134A3B68136005E0114B1B685D
:1010CC00002B01D1002318E0FB689B6803F002039E
:1010DC00002BF3D00B4A3B68136005E0094B1B68EF
:1010EC00002B01D1002308E0FB689B6803F0800310
:1010FC00002BF3D1012300E0002318461C37BD461A
:10110C0080BC70470C05002080B400AF0D4B1B68F1
:10111C0001330C4A13600C4B1B68002B04D00A4B98
:10112C001B68013B084A1360084B1B68002B04D05A
:10113C00064B1B68013B054A136000BFBD4680BCD3
:10114C00704700BF04050020080500200C05002096
:10115C0080B586B000AF7860144A154BD31A7B610A
:10116C007B693B61134B1B68002B02D1114B124A5C
:10117C001A60104B1A687B6813443A699A4207D27A
:10118C0000F048F803460C221A604FF0FF3309E0D8
:10119C00084B1B68FB60074B1A687B681344054AB5
:1011AC001360FB6818461837BD4680BD0050002000
:1011BC0000020000680500208005002080B400AF0C
:1011CC0000BFBD4680BC70470C480D490D4A00233A
:1011DC0002E0D458C4500433C4188C42F9D30A4AE0
:1011EC000A4C002301E013600432A242FBD3FFF748
:1011FC00E5FF00F015F8FFF78BFC704700000020AE
:10120C0068000020D0220008680000207C05002027
:10121C00FEE70000014B1868704700BF0400002077
:10122C0070B500260C4D0D4C641BA410A64209D1C0
:10123C0000F09CFC00260A4D0A4C641BA410A6422C
:10124C0005D170BD55F8043B98470136EEE755F8CB
:10125C00043B98470136F2E7C8220008C822000870
:10126C00C8220008CC22000803460244934200D155
:10127C00704703F8011BF9E70EB46FF0004100B59D
:10128C009CB01DAB02900690079104910848094947
:10129C0053F8042B0591006802A9019300F068F83B
:1012AC000022029B1A701CB05DF804EB03B070476F
:1012BC00040000200802FFFF2DE9F0478E688246EB
:1012CC009E420C4690461F4638D88A8912F4906F7D
:1012DC0032D0256809690133A5EB010965694B44D6
:1012EC0005EB450505EBD5756D109D4238BF1D46C8
:1012FC00530531D5294600F06FFB064650B90C2337
:10130C004FF0FF30CAF80030A38943F04003A381AB
:10131C00BDE8F0874A46216900F0CEFAA38923F490
:10132C00906343F08003A38126614E4426603E46C1
:10133C006561A5EB0905A560BE4200D93E46324663
:10134C004146206800F0C6FAA36800209B1BA360EE
:10135C00236833442360DBE72A4600F0B1FB0646E2
:10136C000028E1D15046216900F0CEFAC7E7000011
:10137C002DE9F04F98468B8907461B060D461446FF
:10138C009DB00ED50B6963B9402100F025FB286098
:10139C00286120B90C233B604FF0FF30D1E0402393
:1013AC006B610023099320238DF8293030234FF0F3
:1013BC000109CDF80C80DFF8A4818DF82A30234682
:1013CC009A4613F8012B0AB1252AF9D1BAEB040B72
:1013DC000BD05B46224629463846FFF76DFF01309D
:1013EC0000F0AA80099A5A4409929AF80030002B0E
:1013FC0000F0A28000234FF0FF32CDE905230AF163
:10140C00010A049307938DF853301A93544605221E
:10141C0014F8011B514800F041FA049AD8B9D006CF
:10142C0044BF20238DF85330110744BF2B238DF874
:10143C0053309AF800302A2B15D0544600204FF028
:10144C000A0C079A214611F8013B303B092B4ED967
:10145C00B0B1079214E0A0EB080309FA03F31343AD
:10146C00A2460493D2E7039B191D1B680391002B22
:10147C00BBBF5B4242F0020207930793B8BF0492D2
:10148C0023782E2B0CD163782A2B35D1039B023475
:10149C001A1D1B680392002BB8BF4FF0FF33059346
:1014AC00DFF8BCA003225046217800F0F7F940B1D8
:1014BC004023A0EB0A0003FA00F0049B0134034321
:1014CC00049314F8011B062226488DF8281000F00E
:1014DC00E5F9002838D0244B1BBB039B073323F0C2
:1014EC00070308330393099B3344099367E70C46BE
:1014FC0001200CFB0232A5E700234FF00A0C194621
:10150C0001340593204610F8012B303A092A03D9EF
:10151C00002BC5D00591C3E7044601230CFB012128
:10152C00F0E703AB00932A463846104B04A9AFF3FF
:10153C000080421C0646D6D1AB895B063FF52CAF2A
:10154C0009981DB0BDE8F08F03AB00932A463846CE
:10155C00064B04A900F07CF8EBE700BF95220008CD
:10156C009B2200089F22000800000000C512000802
:10157C002DE9F047164699468A680B69074693424F
:10158C00B8BF1346336091F843200C46DDF8208039
:10159C000AB1013333602368990642BF33680233C2
:1015AC003360256815F0060506D104F1190AE368C5
:1015BC0032689B1AAB4228DC94F84320131E226835
:1015CC0018BF012392062DD44946384604F1430234
:1015DC00C047013020D02368E56803F00603042BD4
:1015EC0018BF002532684FF00006A36808BFAD1A7B
:1015FC00226908BF25EAE5759342C4BF9B1AED1812
:10160C001A34B5421AD1002008E00123524649464B
:10161C003846C047013003D14FF0FF30BDE8F087AA
:10162C000135C4E73020E11881F843005A1C94F8C6
:10163C0045102244023382F84310C5E701232246A9
:10164C0049463846C0470130E6D00136D9E700009C
:10165C002DE9FF470F7E9146782F80460C469A461F
:10166C000C9D01F1430207D8622F0AD8002F00F01D
:10167C00D980582F00F0A48004F1420584F8427000
:10168C003AE0A7F16303152BF6D801A151F823F02A
:10169C00F5160008091700088516000885160008BD
:1016AC00851600088516000809170008851600081D
:1016BC0085160008851600088516000817180008FE
:1016CC0039170008F9170008851600088516000858
:1016DC003918000885160008391700088516000807
:1016EC0085160008011800082B681A1D1B682A6053
:1016FC0004F1420584F842300123A4E020682968F3
:10170C00060601F104030AD50E682B60002E03DADD
:10171C002D23764284F843300A235E4819E00E6884
:10172C0010F0400F2B6018BF36B2EFE72B68206823
:10173C00191D2960010601D51E6802E04606FBD57D
:10174C001E886F2F0CBF08230A235248002184F8EF
:10175C0043106568002DA8BF2168A560A4BF21F0C7
:10176C00040121600EB9002D4DD01546B6FBF3F1E6
:10177C0003FB1167C75D05F8017D3746BB420E467A
:10178C00F4D9082B0BD12368DE0708D523696168CF
:10179C009942DEBF302305F8013C05F1FF35521BA1
:1017AC0022614B4621464046CDF800A003AAFFF724
:1017BC00DFFE01304CD14FF0FF3004B0BDE8F087B4
:1017CC00344881F845702968236851F8046B296006
:1017DC001D0614D5DF0744BF43F0200323601EB958
:1017EC00236823F0200323601023AFE7236843F022
:1017FC00200323607823284884F84530E3E7590612
:10180C0048BFB6B2E6E71546BBE72B682668181D3D
:10181C006169286035061B6801D5196002E0700605
:10182C00FBD51980002315462361BAE72B680021EC
:10183C001A1D2A601D686268284600F02FF808B14E
:10184C00401B606063682361002384F84330A8E781
:10185C002A46494640462369D0470130ABD023681D
:10186C009B0713D4E068039B9842B8BF1846A4E7C3
:10187C000123324649464046D04701309BD00135C2
:10188C00E36803995B1AAB42F2DCEBE7002504F149
:10189C001906F5E7A6220008B7220008034610B582
:1018AC00C9B202449342184601D1002003E00478E7
:1018BC0001338C42F6D110BD0A44914200F1FF3342
:1018CC0000D1704710B511F8014B914203F8014F4C
:1018DC00F9D110BD884210B501EB020402D9844243
:1018EC00234607D8431EA14208D011F8012B03F858
:1018FC00012FF8E7014602448A4200D110BD13F8CB
:10190C00014D02F8014DF7E738B50546002940D0E6
:10191C0051F8043C0C1F002BB8BFE41800F010F970
:10192C001C4A136833B9636014602846BDE838401C
:10193C0000F00CB9A34208D9206821188B4201BFD2
:10194C0019685B6809182160EDE71A465B680BB1F2
:10195C00A342FAD911685018A0420BD12068014457
:10196C00501883421160E0D118685B680144116023
:10197C005360DAE702D90C232B60D6E720682118D4
:10198C008B4201BF19685B68091821606360546061
:10199C00CBE738BD6C05002070B50E4E0C46316897
:1019AC00054611B900F0BCF830602146284600F01D
:1019BC00B7F8431C0AD0C41C24F00304A04207D07F
:1019CC00211A284600F0ACF8013001D14FF0FF3459
:1019DC00204670BD700500202DE9F041CD1C25F08E
:1019EC00030508350C2D38BF0C25002D074601DBEF
:1019FC00A94205D90C2300263B603046BDE8F08196
:101A0C002E4E00F09DF833681C4634BB29463846F0
:101A1C00FFF7C2FF431C04464DD134682646002E06
:101A2C0040D123683146384604EB030800F078F8BF
:101A3C0080453AD1216803356D1A25F00305083528
:101A4C000C2D38BF0C2538462946FFF7A5FF013071
:101A5C002BD023682B4423600EE02268521B1ED42B
:101A6C000B2A16D96119A342256018BF5960636807
:101A7C0008BF316062514B60384604F10B0600F030
:101A8C0065F826F00706231DF21AB6D09B1BA3504F
:101A9C00B3E76268A3420CBF32605A60ECE723469E
:101AAC006468B2E734467668B9E70C2338463B6085
:101ABC0000F04CF8A1E72560DEE700BF6C050020C4
:101ACC002DE9F041804614460E4621B91146BDE879
:101ADC00F041FFF781BF2AB9FFF716FF25462846CC
:101AEC00BDE8F08100F038F88442074602D8B4EB28
:101AFC00500F12D821464046FFF76EFF05460028CE
:101B0C00EDD0BC422246314628BF3A46FFF7D4FE00
:101B1C0031464046FFF7F8FEE1E73546DFE70000C7
:101B2C0038B50023054D044608462B60FFF710FB23
:101B3C00431C02D12B6803B1236038BD740500200F
:101B4C00014800F011B800BF78050020014800F0F2
:101B5C000CB800BF7805002051F8043C181F002B6E
:101B6C00BCBF0B58C018704770477047F8B500BF22
:101B7C00F8BC08BC9E467047F8B500BFF8BC08BC62
:041B8C009E467047BA
:101B90005361696E74205065746572736275726703
:101BA00000000000656C656374726F6E696373207A
:101BB0006C61622E000000002020202020202020C8
:101BC0002020202020202020000000002020204372
:101BD0006C697070696E67202020200025342E31DA
:101BE0006400000025322E316463D0B5D0BA2E00D7
:101BF00025322E3164D0BCD0B8D0BD2E00000000FC
:101C000025322E3164D187D0B0D1812E0000000062
:101C1000000000170000030003FF0AFF17FF1D0963
:101C200004120E1B0A0300000E1100110E00040A1C
:101C300004040E0410180004040410000008040238
:101C4000FF11FF11FF101D15171515FF0704FF17D2
:101C5000151DFF151D0101FFFF15FF17151F0A00B8
:101C600000100A00040A000A0A0A0A040001150703
:101C70001F11171F051F1F151B1F11111F110E1FED
:101C800015151F05051F111D1F041F111F11181009
:101C90001F1F041B1F10101F021F1F011F1F111FDA
:101CA0001F05070F190F1F051B17151D011F011F0A
:101CB000101F0F100F1F081F1B041B031C031915F7
:101CC000131F1100020408111F000201021010105E
:101CD0000102000C121E1E14081C14140C121F0CFE
:101CE0001A14041F0517150F1F021C001D00100DEC
:101CF000001F041A011F001E041E1E021E1E121EBB
:101D00001E0A04040A1E1E020614120A021F121ED4
:101D1000101E0E100E1E081E1A041A13140F1A128B
:101D200016041F11001F00111F040C04061F051FBD
:101D30001F151D1F151B1F01011E111E1F15151B31
:101D40001F1B15151B1F101F1D111D1F041B1E011E
:101D50001F1F021F1F041F1F111F1F011F1F050729
:101D60001F1111011F0113141F0E1B0E1B041B0F4B
:101D7000081F07041F1F181F0F0C1F011F1C1F1413
:101D80001F15150E1F14081F0E1F1B051F0C121EFA
:101D90001E151D1E160C1E02021C121C0C1A141AF3
:101DA0001E1A12161E1E101E1A121A1E041A1C02C9
:101DB0001E1E041E1E081E1E121E1E021E1E0A04C9
:101DC0001E1212021E0216140E0C1E0C1A0C1A0EF3
:101DD000081E06041E1E181E0E0C1E021E181E14BF
:101DE0001E1E180012160C1E0C1E140A1E1F15159E
:101DF0000C1A1403030000000000000000004F0054
:101E000000000700070000147F147F14242A7F2A93
:101E1000122313086462364955224000050300006E
:101E20001C2241000041221C000014083E08140836
:101E3000083E0808A0600000000808080808606064
:101E400000000020100804023E5149453E00427F38
:101E5000400042615149462141454B311814127FDF
:101E60001027454545393C4A494930017109050368
:101E70003649494936064949291E6C6C0000000064
:101E80005636000008142241002424242424004152
:101E90002214080201510906324979413E7E11118E
:101EA000117E7F494949363E414141227F414122CD
:101EB0001C7F494949417F090909013E4149493A85
:101EC0007F0808087F00417F41002040413F017F9B
:101ED000081422417F404040407F020C027F7F0473
:101EE00008107F3E4141413E7F090909063E4151AC
:101EF000215E7F09192946464949493101017F017F
:101F0000013F4040403F1F2040201F3F4060403F76
:101F10006314081463070870080761514945437F3B
:101F20004141000015167C161541417F0000040256
:101F3000010204404040404001020400002054548B
:101F400054787F4444443838444444003844444836
:101F50007F3854545418107E1101020C5252523ED4
:101F60007F0804047800447D40002040403D007F0D
:101F70001028440000417F40007C041804787C084D
:101F800004047838444444387C14141408081414A5
:101F9000187C7C080404084854545420043F4440EE
:101FA000203C4040207C1C2040201C1E2010201E75
:101FB0002214081422064848483E4464544C4408FD
:101FC0003641000000007F0000413608000008088C
:101FD0002A1C087E1111117E7F494949337F4949E6
:101FE00049367F01010103E0514F41FF7F494949D3
:101FF0004177087F087741494949367F1008047FB7
:102000007C2112097C7F0814224120413F017F7FFF
:10201000020C027F7F0808087F3E4141413E7F015C
:1020200001017F7F090909063E4141412201017FEB
:10203000010147281008071C227F221C6314081482
:10204000637F404040FF070808087F7F407F407F54
:102050007F407F40FF017F4848307F4830007F004D
:102060007F484830224149493E7F083E413E46294B
:1020700019097F20545454783C4A4A49317C5454BD
:1020800028007C0404040CE0544C44FC38545454A0
:10209000186C107C106C44445454287C2010087C2C
:1020A0007C4122117C7C1028440020443C047C7C30
:1020B0000810087C7C1010107C38444444387C04A0
:1020C00004047C7C14141408384444442804047C1C
:1020D00004040C5050503C3048FC48304428102830
:1020E000447C404040FC0C1010107C7C407C407CC8
:1020F0007C407C40FC047C5050207C5050207C7CF8
:102100005050200028445454387C10384438085427
:1021100034147C7E4B4A4B423855545518000609FE
:1021200009060000C0E030303030602000000000C0
:10213000000000000000000000F8F80000000000AF
:102140000000F8F80000000000000000000000009F
:10215000000000000000303000000000000000001F
:10216000000000000000000000000000000000006F
:1021700000000000000000303000000000000000FF
:10218000000000000000000000000000000000004F
:10219000000000000000000000000000000000003F
:1021A00000000000C18306040C0C8CF8700078FC61
:1021B000860303030386FC7800FFFF78FE86030393
:1021C0000386FFFF0000FCFEB7333333373E3C008D
:1021D00000FFFF060303FFFF00FFFF0603030306E4
:1021E000FEF8000038FC8603030386FFFF000000B2
:1021F00000000000000000FFFF0000FFFF060303D7
:1022000078FC860303030386FC780000FFFF0603C7
:10221000030306FEF80000000000000000000000BC
:10222000000000000809090B0B0B09090808080841
:10223000090B0B0B0B090808080B0B0809090B0B02
:102240000B090B0B080808090B0B0B0B0B090908F2
:10225000080B0B0808080B0B080B0B0808080808EC
:102260000B0B0808001039636363311F0F0000086F
:10227000080808080808080B0B08080B0B080808D2
:102280000808090B0B0B0B09080808080B0B0808BA
:102290000808080B0B232D302B2000686C4C0065C0
:1022A0006667454647003031323334353637383982
:1022B00041424344454600303132333435363738B5
:0822C000396162636465660088
:0422C80031010008D8
:0422CC000D010008F8
:1022D0008040000008000020000000000000000016
:1022E00000000000000000000000000000000000EE
:1022F00000000000000000000000000000000000DE
:1023000000000000000000000000000000000000CD
:1023100000000000000000000000000000000000BD
:1023200000000000000000000000000000000000AD
:082330000000000000000000A5
:04000005080011D509
:00000001FF
